:04000000020029329F
:01000B0032C2
:0100130032BA
:01001B0032B2
:030023000200EDEB
:0600820075660002002675
:0300260002040FC2
:20008800C030C0317530047531DCD531FDD530FAD031D0302275985053A23F438E04538EE0
:2000A800F7438E0175D7E875D6FFD2AFD2ACE4F566F522F523F524F525438E1022858299AE
:2000C80075660110990280FB22AE82AF83EE2EFEEF33EE2426F9AE997F00A70609A70710EB
:2000E800980280FB22C021C0E0C0F0C082C083C007C006C005C004C003C002C001C000C02F
:20010800D075D008109802802485998275D0001200C575D0080524E4B524020525C3E52485
:200128009420E52594004005E4F524F525309903756600D0D0D000D001D002D003D004D0D8
:2001480005D006D007D083D082D0F0D0E0D02132AD82AE83AFF08D828E838FF01207C6FC34
:2001680060188C820DBD00010EC007C006C0051200C5D005D006D00780DC22AC82AD83AEE3
:20018800F0FFC007C006C005C00412071C858267858368120750A882A983AAF0FBD004D047
:2001A80005D006D007C000C001C002C0038C828D838EF0EF1205B4AC82AD83AEF0FFE581C8
:2001C80024FCF581C004C005C006C00790000075F02074411205BFAC82AD83AEF0FFE5816A
:2001E80024FCF5818C828D838EF0EF12071CAF82AA6774302AF582C0071200C575822E1245
:2002080000C5D00774302FF5821200C575820D1200C575820A0200C57E607F09C007C00683
:20022800120088D006D0071EBEFF011FEE4F70EC227E587F02C007C006120088D006D0078E
:200248001EBEFF011FEE4F70EC22AE82AF837C527D031CBCFF011DEC4D70F71EBEFF011FA0
:20026800EE4F70EA22C2A5C2A3C2B6D2A2D2A1D2A0D290D294D2B722AE82AF83BE0305BFC6
:2002880000028004EE4F7013C2A5D2A2D290C2A3D2A1D294C2B6D2A0D2B722BE0216BF006B
:2002A80013C2A5D2A2D290D2A3D2A1D294C2B6D2A0D2B722BE0115BF0012D2A5D2A2D29011
:2002C800C2A3D2A1D294D2B6D2A0D2B722D2A5D2A3D2B6D2A2D2A1D2A0C290C294C2B71233
:2002E8000220D290D294D2B7020220C2A5C2A3C2B6D2A2D2A1D2A0D290D294D2B71202203D
:20030800D2A5D2A3D2B6020220E5826005D2A5C2A222C2A5D2A222E5826005D2A3C2A122B1
:20032800C2A3D2A122E5826007D2B6C2A0D2B722C2B6D2A0D2B722E5827004D2B38002C21F
:20034800B39008E175F080120158A2B3E433F5821207E2120183A2B3E433F58222E58270C9
:2003680004D2B58002C2B59008EB75F080120158A2B5E433F5821207E2120183A2B5E4333A
:20038800F58222E5827004D2B48002C2B49008F575F080120158A2B4E433F5821207E21295
:2003A8000183A2B4E433F582223081093080067E037F00801C2081093080067E027F0080C0
:2003C800103081092080067E017F0080047E007F008E828F8322D2B3D2B5D2B4D2A67E005A
:2003E8007F00C3EE940AEF648094805012C007C0061202D5D006D0070EBE00E60F80E3C2D5
:20040800A61203B10202801203B1AE82AF837D007C008D69C007C006C005C00412009D9078
:2004280008FF75F08012015875B10075B2387580FF7590FF75A0FF75B0FFC2A6120220D23A
:20044800B3D2B5D2B41202D5D004D005D006D0078E828F83C007C006C005C004120280D2F7
:200468009390090D75F080120158A291E433F5821207E212018390091A75F080120158A2F4
:2004880092E433F5821207E212018390092875F080120158A293E433F5821207E21201833E
:2004A80090093475F0801201589001F4120252D004D005D006D00720A426C291C292120330
:2004C800B1AE82AF83C007C0061203DE9003E8120252D006D0077D007C008D69D291D2923D
:2004E800209640EE4F600EBE0205BF00028006BE0331BF002EEDB401009200E433FDF582A9
:20050800C007C006C005C004120311D004D0058D82C005C00412033F120239D004D005D03C
:2005280006D00720953CEE4F600EBE0105BF00028006BE032DBF002AECB401009200E4330E
:20054800FCF582C007C006C005C00412031FD0048C82C004120365120239D004D005D006EA
:20056800D0073097030204BFEE4F6013BE0205BF0002800BBE0305BF000280030204BFE598
:2005880069B401009200E433F569856982C007C006C005C00412032D85698212038B120242
:0C05A80039D004D005D006D0070204BFF3
:2008E10052656C617920303A200052656C617920313A200052656C617920323A2000535458
:200901004331355734303841530D0A006E52656164792D50315F313A006E52656C6F6164EF
:170921002D50315F323A0052657365742D50315F333A002B2B2B0048
:0B05B400A8811818C6B2E7C60206C3F3
:2005BF00120662BC000302077EEF60FA30D502B2D1E583B4FF03020794E582B4FF030207A8
:2005DF0094258340072482400B02077E2483145003020794F582EA8DF0A4A8F0EA8EF0A430
:2005FF0028F8E435F0F9EB8DF0A428E935F0F9E433CA8FF0A429F9EA35F0FAEBF88EF0A44B
:20061F0029F9EA35F0FAE433FBEC8DF0A429F9EA35F0FAE43BFBE88FF0A42AFAEB35F0FBF2
:20063F00E433CCFD8EF0A42AFAEB35F0FBE43CFCED8FF0A42BFBEC35F0FC20E70312069059
:03065F0002075D32
:20066200AA82AB83A2F73392D1F5826002D2F7ACF0E58124F9F8E6FD08E6FE0886F008E6FB
:0E068200A2F73392D5F5836002D2F7AFF022D3
:06005800E4787FF6D8FDFC
:200690007804EC7011E58224F8500AF582E4C9CACBFCD8EF22EC7820058220E713D5820169
:1306B00022C3E933F9EA33FAEB33FBEC33FCD8EA15822277
:200036007900E94400601B7A00900938780175A000E493F2A308B8000205A0D9F4DAF2752F
:02005600A0FF09
:2006C3001206627900E583B58202800D50031207ACE583C3958212082DE5D0C465D020E1A6
:2006E30017EA2DFAEB3EFBEC3FFC5009740112082DEC4480FC02075DC3EA9DFAEB9EFBECA9
:190703009FFC500FC3E499F9E49AFAE49BFBE49CFCB2D112069002075DAB
:20005E007800E84400600A790175A000E4F309D8FC7800E84400600C7900900001E4F0A3A0
:04007E00D8FCD9FAD7
:20071C00120870700AE582458345F0700122E430D112F4700BE5F0F47006E58330E701227B
:14073C0090800022700AE5F07006E58320E70122907FFF22F0
:0D075000AC83AB827A007900748E0207F64C
:20075D00B98003EA13B34010EA2401FAE43BFBE43CFC50047C800582BC000EBB000BBA00E0
:20077D0008E4F5F0F583F58222A2D1E582138CF092F78B838A8222E4F583F58275F080F4A0
:0F079D00A2D11322E4F583F58275F0C0747F2298
:1A07AC00E582C583F582A2D133A2D592D11392D5ECCFFCEBCEFBEACDFA22D5
:0D0029007581691208CBE582600302002694
:1C07C60020F71430F6148883A88220F507E6A88375830022E280F7E49322E02242
:0B07E200E4AC82FBFAF97486020823E5
:2007ED00FCABF0AA83A982749EF582C2D1EC30E716D2D1E9F42401F9EAF43400FAEBF4340B
:0D080D0000FBECF43400FC12069002075DC5
:13081A00FCABF0AA83A982749EC2D1F58212069002075DB2
:20082D006040F82582500274FFF582E824F8501ECCCBCAF9E4CC24F85014CBCAF9E4CB24D3
:20084D00F8500BCAF9E4CA24F8500379002224086010F8C3EC13FCEB13FBEA13FAE913F986
:03086D00D8F1229D
:200870001208CFC3749E95824039790012082D30D126E9F42401F582EAF43400F583EBF451
:200890003400F5F0ECF43400700AE582458345F0700122E430E70F22EC20E71489828A835F
:1B08B0008BF02230D10AE4F582F583F5F074802274FFF582F583F5F0747F225B
:0408CB007582002210
:1208CF00AA82AB83A2F73392D1F5826002D2F7ACF0222E
:00000001FF
